:100000000C94A7000C9484030C94C4000C94C400BA
:100010000C94C4000C94C4000C94C4000C94C40050
:100020000C94C4000C94C4000C94C4000C94C6033B
:100030000C94C4000C94C4000C94C4000C94C40030
:100040000C94C4000C94C4000C94C4000C94C40020
:100050000C94C40000407A10F35A00A0724E1809A4
:100060000010A5D4E80000E87648170000E40B541F
:10007000020000CA9A3B000000E1F50500008096EE
:100080009800000040420F000000A0860100000020
:10009000102700000000E8030000000064000000DA
:1000A00000000A00000000000100000000002C76A3
:1000B000D888DC674F0823DFC1DFAE59E1B1B796BE
:1000C000E5E3E453C63AE651997696E8E6C284261B
:1000D000EB898C9B62ED407C6FFCEFBC9C9F40F2F7
:1000E000BAA56FA5F490055A2AF75C936B6CF96773
:1000F0006DC11BFCE0E40D47FEF520E6B500D0ED38
:10010000902E0300943577050080841E080000209F
:100110004E0A000000C80C333333330F986E12833D
:100120001141EF8D2114893BE65516CFFEE6DB1811
:10013000D1844B381BF77C1D901DA4BBE4242032D6
:1001400084725E228100C9F124ECA1E53D271124CF
:100150001FBECFE5D8E0DEBFCDBF10E0A0E6B0E027
:10016000E2E4F9E102C005900D92AC3BB107D9F78A
:1001700020E0ACEBB0E001C01D92A83FB207E1F770
:100180000E94D7030C949F0C0C94000041E060E0A7
:1001900080E00E94900541E061E080E00E949005CF
:1001A00041E062E080E00E94900541E063E080E091
:1001B0000E949005089560E080E00E94010661E0E1
:1001C00080E00E94350662E080E00E94010663E064
:1001D00080E00E943506089560E080E00E940106FC
:1001E00061E080E00E94350662E080E00E94350612
:1001F00063E080E00E943506089560E080E00E94A0
:10020000350661E080E00E94350662E080E00E94F1
:10021000010663E080E00E9435060895CF93C82F61
:1002200061E081E00E94350662E081E00E943506CF
:1002300063E081E00E9435068BB39C2F907F8F7026
:10024000892B8BBB63E081E00E9401068FE99FE070
:100250000197F1F700C0000063E081E00E943506DD
:1002600020E1C29FC00111249BB39F70892B8BBBDF
:1002700063E081E00E9401068FE99FE00197F1F7BA
:1002800000C0000063E081E00E9435068FE39FE13B
:100290000197F1F700C00000CF91089541E061E0BF
:1002A00081E00E94900541E062E081E00E949005BB
:1002B00041E063E081E00E94900541E064E080E07D
:1002C0000E94900541E065E080E00E94900541E0D9
:1002D00066E080E00E94900541E067E080E00E94D7
:1002E00090052FEF86E791E0215080409040E1F7A4
:1002F00000C0000082E00E940E018FE59AEE019797
:10030000F1F700C0000088E20E940E018FE99FE033
:100310000197F1F700C000008CE00E940E018FE908
:100320009FE00197F1F700C0000081E00E940E01FC
:100330008FE59AEE0197F1F700C0000083E00E947C
:100340000E018FE39FE10197F1F700C000000895CF
:10035000CF93C82F61E081E00E94010662E081E056
:100360000E94350663E081E00E9435068BB39C2F26
:10037000907F8F70892B8BBB63E081E00E94010628
:100380008FE99FE00197F1F700C0000063E081E092
:100390000E94350620E1C29FC00111249BB39F70CB
:1003A000892B8BBB63E081E00E9401068FE99FE00F
:1003B0000197F1F700C0000063E081E00E9435067C
:1003C0008FE39FE10197F1F700C00000CF910895FE
:1003D000CF93DF93EC0103C00E94A801219688818E
:1003E0008111FACFDF91CF91089581E00E940E0133
:1003F0008FE59AEE0197F1F700C0000008959FEF96
:10040000960F9F3080F4823071F4813019F0823081
:1004100031F008958FE7860F0E940E0108958FEB4B
:10042000860F0E940E0108950F931F93CF93DF93C1
:10043000CDB7DEB729970FB6F894DEBF0FBECDBF9C
:1004400081B3806181BB60E47CE983E00E94A20704
:1004500001E011E02B8133E042E052E060E070E027
:1004600080E00E946D0629960FB6F894DEBF0FBE9D
:10047000CDBFDF91CF911F910F9108951DBC1CBC82
:1004800068EE73E084E00E94A20708951DBC1CBCC6
:1004900068E873E184E00E94A20708951DBC1CBCBB
:1004A00068EB7BE084E00E94A20708958F929F9200
:1004B000AF92BF92CF92DF92EF92FF926091610074
:1004C00083E00E94010680E58A95F1F76091610062
:1004D00083E00E9435068BB780648BBF8091C0009B
:1004E000833009F0A6C06091BF00862F90E0A0E0A5
:1004F000B0E0BA2FA92F982F88272091BD00BC010A
:10050000CD01620F711D811D911D0E94CA084B0112
:100510005C0120E030E040E853E40E9481099B0147
:10052000AC0160E074E284E79BE40E9429086B015F
:100530007C016093C2007093C3008093C4009093C9
:10054000C5006091BE00862F90E0A0E0B0E0BA2F19
:10055000A92F982F88272091BC00BC01CD01620FE4
:10056000711D811D911D0E94CA08A50194010E9460
:1005700029089B01AC016093D2007093D300809353
:10058000D4009093D500C701B6010E948109609301
:10059000D6007093D7008093D8009093D9000E9422
:1005A0009B0864BB6091C2007091C3008091C4003D
:1005B0009091C5000E949B0865BB2091D6003091A8
:1005C000D7004091D8005091D90060E070E080E8F9
:1005D0009FE30E9429086093CA007093CB00809328
:1005E000CC009093CD0020E030E040E05FE30E943B
:1005F00081096093CE007093CF008093D0009093D8
:10060000D1002FE135E84BE550E40E948109609369
:10061000C6007093C7008093C8009093C9001092E1
:10062000BD001092BF001092BE001092BC0010924C
:10063000C000C090C600D090C700E090C800F09005
:10064000C90020E030E0A901C701B6010E942408DA
:1006500081110EC081E090E060E070E00E94EE0940
:10066000072E000C880B990B0E94CC086B017C01B3
:10067000C701B601FF90EF90DF90CF90BF90AF9091
:100680009F908F9008950F931F93CF93DF93CDB7D3
:10069000DEB729970FB6F894DEBF0FBECDBF00E0DE
:1006A0001A8120E03C8140E054E061E070E08985FF
:1006B0000E946D0629960FB6F894DEBF0FBECDBF1F
:1006C000DF91CF911F910F91089585B7816085BF0C
:1006D00085B7826085BF41E06091610083E00E9440
:1006E000900541E06091600083E00E9490058BB727
:1006F00080648BBF8FB780688FBF8BB780648BBFE0
:100700000E944303789408951F920F920FB60F92A0
:1007100011248F938091C00081110FC084E083BFAA
:1007200012BE1092C10085B78E7F85BF85B78260EB
:1007300085BF81E08093C00023C0813089F482B7F7
:100740008093BC008091C1008093BE0085B781601A
:1007500085BF85B7826085BF82E08093C00010C0EE
:10076000823071F482B78093BD008091C100809384
:10077000BF008BB78F7B8BBF13BE83E08093C0001D
:100780008F910F900FBE0F901F9018951F920F9290
:100790000FB60F9211248F938091C1008F5F8093C9
:1007A000C1008F910F900FBE0F901F9018950E945F
:1007B00014020E9465030E944E010E94C60082E658
:1007C00090E00E94E8012FEF89E698E121508040F7
:1007D0009040E1F700C000000E94F50188E690E03B
:1007E0000E94E80161E082E00E94FF0187E790E05B
:1007F0000E94E8012FEF89E698E121508040904067
:10080000E1F700C000000E94F5010E943E022FEFB8
:1008100089E698E1215080409040E1F700C0000057
:100820000E9456022FEF89E698E1215080409040C7
:10083000E1F700C000000E944E020E9456022B0108
:100840003C012FEF89E698E1215080409040E1F78C
:1008500000C000000E9456022FEF89E698E1215067
:1008600080409040E1F700C000000E9456026B01FA
:100870007C012FEF89E698E1215080409040E1F71C
:1008800000C000000E9446020E9456022FEF89E637
:1008900098E1215080409040E1F700C000000E94A4
:1008A00056024B015C012FEF89E698E12150804010
:1008B0009040E1F700C0000004EE10E022E030E0DC
:1008C00042E050E0C301B2010E94160A0AED10E0B6
:1008D00022E030E042E050E0C701B6010E94160A73
:1008E0000EEE10E022E030E042E050E0C501B4013D
:1008F0000E94160A8EE790E00E94E80184EE90E0E4
:100900000E94E8012FEF83ED90E32150804090405A
:10091000E1F700C000000E94F5012FEF80E792E0B0
:10092000215080409040E1F700C0000087E890E04F
:100930000E94E8018AED90E00E94E8012FEF83ED2C
:1009400090E3215080409040E1F700C000000E94F9
:10095000F5012FEF80E792E0215080409040E1F7D1
:1009600000C0000082E990E00E94E801C8010E94F6
:10097000E8012FEF83ED90E3215080409040E1F7B4
:1009800000C000000E94F5012FEF80E792E02150A7
:1009900080409040E1F700C0000020E030E0A90175
:1009A000C301B2010E94B8072B013C0120E030E0F6
:1009B000A901C701B6010E94B8076B017C0120E0C4
:1009C00030E0A901C501B4010E94B8074B015C01E8
:1009D0009B01AC01C701B6010E947C0988237CF110
:1009E000A7019601C301B2010E94240818163CF128
:1009F00020E030E040E251E4C701B6010E947C09EA
:100A00008823ECF00E94F5012FEF80E792E021505F
:100A100080409040E1F700C000008BE990E00E9428
:100A2000E8010E94DB002FEF89E698E12150804029
:100A30009040E1F700C000000E94F501E6CEA5015C
:100A40009401C701B6010E94240818167CF1A50183
:100A50009401C301B2010E94240818163CF120E061
:100A600030E040E251E4C701B6010E947C098823CE
:100A7000ECF00E94F5012FEF80E792E021508040DA
:100A80009040E1F700C0000086EA90E00E94E80193
:100A90000E94EC002FEF89E698E1215080409040C1
:100AA000E1F700C000000E94F501AFCEA70196015A
:100AB000C301B2010E947C0988230CF4A6CEA501D3
:100AC0009401C301B2010E947C0988230CF49DCEDD
:100AD00020E030E040E251E4C301B2010E947C0911
:100AE00088230CF492CE0E94F5012FEF80E792E06C
:100AF000215080409040E1F700C0000081EB90E081
:100B00000E94E8010E94FD002FEF89E698E1215044
:100B100080409040E1F700C000000E94F50175CED2
:100B20004130A9F581110BC02AB381E090E002C0E9
:100B3000880F991F6A95E2F7822B8ABB089581304E
:100B400059F427B381E090E002C0880F991F6A959D
:100B5000E2F7822B87BB0895823059F424B381E0F9
:100B600090E002C0880F991F6A95E2F7822B84BB40
:100B70000895833009F044C021B381E090E002C0C1
:100B8000880F991F6A95E2F7822B81BB0895411166
:100B900037C081110CC02AB381E090E002C0880FF9
:100BA000991F6A95E2F7809582238ABB0895813068
:100BB00061F427B381E090E002C0880F991F6A9525
:100BC000E2F78095822387BB0895823061F424B3D5
:100BD00081E090E002C0880F991F6A95E2F7809546
:100BE000822384BB0895833059F421B381E090E0DF
:100BF00002C0880F991F6A95E2F78095822381BB16
:100C0000089581110BC02BB381E090E002C0880FE2
:100C1000991F6A95E2F7822B8BBB0895813059F4B6
:100C200028B381E090E002C0880F991F6A95E2F72F
:100C3000822B88BB0895823059F425B381E090E07F
:100C400002C0880F991F6A95E2F7822B85BB089531
:100C5000833051F422B381E090E002C0880F991FE5
:100C60006A95E2F7822B82BB089581110CC02BB3E9
:100C700081E090E002C0880F991F6A95E2F78095A5
:100C800082238BBB0895813061F428B381E090E02A
:100C900002C0880F991F6A95E2F78095822388BB6E
:100CA0000895823061F425B381E090E002C0880F9E
:100CB000991F6A95E2F78095822385BB089583305A
:100CC00059F422B381E090E002C0880F991F6A9521
:100CD000E2F78095822382BB08950F931F93CF93F1
:100CE000DF93CDB7DEB729970FB6F894DEBF0FBEFE
:100CF000CDBF09831A832B833C834D835E836F832F
:100D000078878987013009F441C020F0023009F466
:100D1000D3C00DC129B73F819885892F90E0880FF6
:100D2000991F832B822B89BF8F81811103C08885F6
:100D3000882319F08FB780688FBF83B78F7B83BFFD
:100D40008B81813069F028F0823071F0833081F03E
:100D500012C083B78F7B83BF83B7877F83BF0BC0EE
:100D600083B7886083BF07C083B7886483BF03C02D
:100D700083B7806483BF23B73E819D8140E1949F08
:100D8000C0011124832B822B83BFD1C049B72F818F
:100D900030E0220F331F220F331F998550E2959FB9
:100DA000C0011124822B842B89BF8F81811103C044
:100DB0008985882319F08FB780688FBF8C81823036
:100DC00029F128F48823A9F0813031F045C083301F
:100DD00051F18430A9F140C08FB58E7F8FBD8FB5A2
:100DE0008D7F8FBD8EB5877F8EBD8EB58F7E8EBD7C
:100DF00033C08FB58E7F8FBD8FB58D7F8FBD8EB584
:100E000088608EBD8EB58F7E8EBD26C08FB58E7FDD
:100E10008FBD8FB582608FBD8EB588608EBD8EB55B
:100E200080618EBD19C08FB581608FBD8FB5826026
:100E30008FBD8EB588608EBD8EB580618EBD0CC0B5
:100E40008FB581608FBD8FB58D7F8FBD8EB588606A
:100E50008EBD8EB58F7E8EBD8A81882319F081303C
:100E600091F025C02FB59D8130E4939FC0011124DE
:100E7000822B8FBD29B7988540E1949FC001112432
:100E8000822B89BF14C02FB59D8150E1959FC00171
:100E90001124822B8FBD29B79885892F90E0880F68
:100EA000991F880F991F880F991F822B89BF9EB5A4
:100EB0008E81892B8EBD3BC025B53E819D8140E151
:100EC000949FC0011124832B822B85BD29B78F816C
:100ED00090E4899FA0011124988530E8939FC00178
:100EE0001124842B822B89BF8F81811103C08885B7
:100EF000882319F08FB780688FBF85B58F7B85BD3C
:100F00008B81813049F028F0823051F0833061F0DC
:100F10000EC085B585BD0BC085B5886085BD07C091
:100F200085B5886485BD03C085B5806485BD299677
:100F30000FB6F894DEBF0FBECDBFDF91CF911F91EA
:100F40000F910895823089F018F4882331F00895C4
:100F5000833029F0843031F008956CBF08957BBD53
:100F60006ABD089579BD68BD089563BD0895505860
:100F7000BB27AA270E94CF070C9442090E9434097C
:100F800038F00E943B0920F039F49F3F19F426F411
:100F90000C9431090EF4E095E7FB0C942B09E92F32
:100FA0000E94530958F3BA1762077307840795071D
:100FB00020F079F4A6F50C9475090EF4E0950B2E4B
:100FC000BA2FA02D0B01B90190010C01CA01A0019B
:100FD0001124FF27591B99F0593F50F4503E68F1F6
:100FE0001A16F040A22F232F342F4427585FF3CF37
:100FF000469537952795A795F0405395C9F77EF408
:101000001F16BA0B620B730B840BBAF09150A1F050
:10101000FF0FBB1F661F771F881FC2F70EC0BA0FD6
:10102000621F731F841F48F4879577956795B7955E
:10103000F7959E3F08F0B0CF9395880F08F0992759
:10104000EE0F9795879508950E94070908F481E0AF
:1010500008950E943D080C9442090E943B0958F0F3
:101060000E94340940F029F45F3F29F00C942B09C9
:1010700051110C9476090C9431090E94530968F3BC
:101080009923B1F3552391F3951B550BBB27AA2741
:1010900062177307840738F09F5F5F4F220F331F7B
:1010A000441FAA1FA9F335D00E2E3AF0E0E832D043
:1010B00091505040E695001CCAF72BD0FE2F29D046
:1010C000660F771F881FBB1F261737074807AB0718
:1010D000B0E809F0BB0B802DBF01FF2793585F4F8D
:1010E0003AF09E3F510578F00C942B090C94760948
:1010F0005F3FE4F3983ED4F3869577956795B7956F
:10110000F7959F5FC9F7880F911D9695879597F979
:101110000895E1E0660F771F881FBB1F62177307F2
:101120008407BA0720F0621B730B840BBA0BEE1F07
:1011300088F7E09508950E945B0988F09F5798F022
:10114000B92F9927B751B0F0E1F0660F771F881FCC
:10115000991F1AF0BA95C9F714C0B13091F00E94E6
:101160007509B1E008950C947509672F782F8827C9
:10117000B85F39F0B93FCCF3869577956795B3950D
:10118000D9F73EF490958095709561957F4F8F4F7C
:101190009F4F0895E89409C097FB3EF49095809581
:1011A000709561957F4F8F4F9F4F9923A9F0F92F2D
:1011B00096E9BB279395F695879577956795B795AB
:1011C000F111F8CFFAF4BB0F11F460FF1BC06F5F91
:1011D0007F4F8F4F9F4F16C0882311F096E911C0A3
:1011E000772321F09EE8872F762F05C0662371F0C4
:1011F00096E8862F70E060E02AF09A95660F771FD8
:10120000881FDAF7880F9695879597F90895990FB3
:101210000008550FAA0BE0E8FEEF16161706E807C0
:10122000F907C0F012161306E407F50798F0621BE1
:10123000730B840B950B39F40A2661F0232B242BB6
:10124000252B21F408950A2609F4A140A6958FEFD5
:10125000811D811D089597F99F6780E870E060E027
:1012600008959FEF80EC089500240A94161617063F
:1012700018060906089500240A9412161306140687
:1012800005060895092E0394000C11F4882352F0EA
:10129000BB0F40F4BF2B11F460FF04C06F5F7F4FA2
:1012A0008F4F9F4F089557FD9058440F551F59F089
:1012B0005F3F71F04795880F97FB991F61F09F3F43
:1012C00079F087950895121613061406551FF2CF6C
:1012D0004695F1DF08C0161617061806991FF1CFBC
:1012E00086957105610508940895E894BB276627E3
:1012F0007727CB0197F908950E94070908F48FEF2B
:1013000008950E9494090C9442090E94340938F00F
:101310000E943B0920F0952311F00C942B090C94AA
:10132000310911240C9476090E94530970F3959F9A
:10133000C1F3950F50E0551F629FF001729FBB27CC
:10134000F00DB11D639FAA27F00DB11DAA1F649F68
:101350006627B00DA11D661F829F2227B00DA11D1B
:10136000621F739FB00DA11D621F839FA00D611DA1
:10137000221F749F3327A00D611D231F849F600DC2
:10138000211D822F762F6A2F11249F5750409AF0EB
:10139000F1F088234AF0EE0FFF1FBB1F661F771F77
:1013A000881F91505040A9F79E3F510580F00C9442
:1013B0002B090C9476095F3FE4F3983ED4F38695AD
:1013C00077956795B795F795E7959F5FC1F7FE2BE2
:1013D000880F911D9695879597F9089597FB072E8D
:1013E00016F4009407D077FD09D00E94020A07FC8A
:1013F00005D03EF4909581959F4F08957095619525
:101400007F4F0895AA1BBB1B51E107C0AA1FBB1F3A
:10141000A617B70710F0A61BB70B881F991F5A9580
:10142000A9F780959095BC01CD010895EF920F9397
:101430001F93CF93DF93E80147FD02C034E001C062
:1014400034E1042E000C550B57FF03C05195419514
:101450005109E32E022F242FAE010E94360ACE013D
:10146000DF91CF911F910F91EF900895A9E0B0E027
:10147000ECE3FAE00C946E0C6A01122FB02E2BE311
:10148000201720F0FF24F394F00E02C02CE3F22E7C
:101490000F2D27E0AE014F5F5F4F0E94900BBC0104
:1014A0004981842F8970813031F0E1FC06C0E0FE73
:1014B00006C090E205C09DE203C09BE201C090E03F
:1014C0005E2D507143FF3CC0911102C083E001C00A
:1014D00084E0811718F4212F281B01C020E051114E
:1014E0000BC0F601822F30E2882319F0319381502E
:1014F000FBCFC20ED11C20E0992329F0D6019C938A
:10150000F60131966F01C6010396E2FE0AC03EE481
:10151000D6013C9341E411964C93119712963C935B
:1015200006C03EE6F601308341E641833283FC018A
:10153000322F40E2332309F442C041933150FACFB5
:1015400042FF44C0911102C083E001C084E08117D2
:1015500018F4212F281B01C020E051110BC0F60107
:10156000822F30E2882319F031938150FBCFC20ED5
:10157000D11C20E0992329F0D6019C93F6013196E5
:101580006F01C6010396E2FE0BC039E4D6013C931D
:101590003EE411963C93119736E412963C9307C0B3
:1015A00039E6F60130833EE6318336E63283FC01CC
:1015B000322F40E2332319F041933150FBCFFC012D
:1015C000E20FF11D10828EEF9FEFA6C021E030E008
:1015D000911102C020E030E0161617061CF4FB0142
:1015E000319602C0E1E0F0E02E0F3F1FBB2021F05A
:1015F000EB2DF0E0319602C0E0E0F0E02E0F3F1F4F
:10160000E12FF0E02E173F071CF4121B212F01C021
:1016100020E08E2D887159F4F601822F30E2882364
:1016200019F031938150FBCFC20ED11C20E09923D9
:1016300029F0D6019C93F60131966F0151110BC030
:10164000F601822F90E3882319F091938150FBCF0C
:10165000C20ED11C20E00F2D060F9A81342F30715D
:1016600044FF03C0913309F40150101624F40930EB
:1016700018F008E001C001E0AB0177FF02C040E0D4
:1016800050E0FB01E41BF50BA1E0B0E0AC0FBD1F87
:10169000EA0FFB1F8EE2A82E4B01801A91080B2D3A
:1016A00010E01195019511094F3FBFEF5B0721F441
:1016B000D601AC9211966D01641775072CF0841653
:1016C000950614F4818101C080E34150510931969F
:1016D000D60111967D014017510724F0D6018C9355
:1016E0006701E2CF6417750739F4963320F4953318
:1016F00019F4311101C081E3F6018083F701822FD3
:1017000090E2882319F091938150FBCFF701E20F0B
:10171000F11D108280E090E02996ECE00C948A0C98
:10172000283008F027E03327DA01990F311D87FDB3
:10173000916000966105710539F432602E5F3D932A
:1017400030E32A95E1F708959F3F30F08038710526
:10175000610509F03C5F3C5F3D93913008F0806883
:10176000911DDF93CF931F930F93FF92EF92192F49
:10177000987F9695E92F96959695E90FFF27E25564
:10178000FF4F99273327EE24FF24A701E701059097
:101790000894079428F4360FE71EF81E491F511DC0
:1017A000660F771F881F991F0694A1F7059007946D
:1017B00028F4E70EF81E491F561FC11D770F881F1A
:1017C000991F661F0694A1F70590079428F4F80E58
:1017D000491F561FC71FD11D880F991F661F771FEE
:1017E0000694A1F70590079420F4490F561FC71FD0
:1017F000D81F990F661F771F881F0694A9F7849139
:101800001095177041F0D695C79557954795F79461
:10181000E7941A95C1F7E4E5F0E068941590159106
:1018200035916591959105907FE27395E118F10AE4
:10183000430B560BC90BD009C0F7E10CF11E431F37
:10184000561FC91FD01D7EF4703311F48A95E6CF60
:10185000E894015030F0080F0AF40027021708F44A
:10186000202F2395022F7A3328F079E37D932A9550
:10187000E9F710C07D932A9589F6069497956795A8
:10188000379517951794E118F10A430B560BC90BBE
:10189000D00998F023957E9173957A3308F070E320
:1018A0007C932013B8F77E9170617D9330F083951F
:1018B00071E37D9370E32A95E1F71124EF90FF9097
:1018C0000F911F91CF91DF91992787FD90950895F2
:1018D0002F923F924F925F926F927F928F929F9240
:1018E000AF92BF92CF92DF92EF92FF920F931F932E
:1018F000CF93DF93CDB7DEB7CA1BDB0B0FB6F894DF
:10190000DEBF0FBECDBF09942A88398848885F841E
:101910006E847D848C849B84AA84B984C884DF808F
:10192000EE80FD800C811B81AA81B981CE0FD11D73
:101930000FB6F894DEBF0FBECDBFED010895F89449
:02194000FFCFD7
:10194200020148454C4C4F004155544F554E4D4FA6
:101952005553204341520053595354454D004C2096
:10196200646973743D20006D696420646973743D19
:1019720020005220646973743D2000474F20464F77
:101982005752415244005455524E205249474854EE
:0C199200005455524E204C4546540000B5
:00000001FF
